{
  "contracts/SwapMeHarder.sol": {
    "SwapMeHarder": {
      "abi": [
        {
          "inputs": [
            {
              "internalType": "uint256",
              "name": "x",
              "type": "uint256"
            },
            {
              "internalType": "uint256",
              "name": "y",
              "type": "uint256"
            }
          ],
          "name": "case_switch",
          "outputs": [
            {
              "internalType": "uint256",
              "name": "xx",
              "type": "uint256"
            },
            {
              "internalType": "uint256",
              "name": "yy",
              "type": "uint256"
            }
          ],
          "stateMutability": "nonpayable",
          "type": "function"
        },
        {
          "inputs": [
            {
              "internalType": "uint256",
              "name": "x",
              "type": "uint256"
            },
            {
              "internalType": "uint256",
              "name": "y",
              "type": "uint256"
            }
          ],
          "name": "if_else",
          "outputs": [
            {
              "internalType": "uint256",
              "name": "xx",
              "type": "uint256"
            },
            {
              "internalType": "uint256",
              "name": "yy",
              "type": "uint256"
            }
          ],
          "stateMutability": "nonpayable",
          "type": "function"
        }
      ],
      "evm": {
        "bytecode": {
          "linkReferences": {},
          "object": "608060405234801561001057600080fd5b506101bc806100206000396000f3fe608060405234801561001057600080fd5b50600436106100365760003560e01c80630f71a1fa1461003b578063dcd812941461008e575b600080fd5b6100716004803603604081101561005157600080fd5b8101908080359060200190929190803590602001909291905050506100e1565b604051808381526020018281526020019250505060405180910390f35b6100c4600480360360408110156100a457600080fd5b810190808035906020019092919080359060200190929190505050610130565b604051808381526020018281526020019250505060405180910390f35b600080610109565b60008082915083905084156101015780829150809250505b935093915050565b610115600084866100e9565b93509350610125600184866100e9565b915091509250929050565b60008061015f565b600080846000811461014f57849250839150610156565b8392508491505b50935093915050565b61016b60008486610138565b9350935061017b60018486610138565b91509150925092905056fea2646970667358221220e57d25f803f589c572f51ba23d3cffc038c15592209be6b50509f9e1bc54c38b64736f6c634300060c0033",
          "opcodes": "PUSH1 0x80 PUSH1 0x40 MSTORE CALLVALUE DUP1 ISZERO PUSH2 0x10 JUMPI PUSH1 0x0 DUP1 REVERT JUMPDEST POP PUSH2 0x1BC DUP1 PUSH2 0x20 PUSH1 0x0 CODECOPY PUSH1 0x0 RETURN INVALID PUSH1 0x80 PUSH1 0x40 MSTORE CALLVALUE DUP1 ISZERO PUSH2 0x10 JUMPI PUSH1 0x0 DUP1 REVERT JUMPDEST POP PUSH1 0x4 CALLDATASIZE LT PUSH2 0x36 JUMPI PUSH1 0x0 CALLDATALOAD PUSH1 0xE0 SHR DUP1 PUSH4 0xF71A1FA EQ PUSH2 0x3B JUMPI DUP1 PUSH4 0xDCD81294 EQ PUSH2 0x8E JUMPI JUMPDEST PUSH1 0x0 DUP1 REVERT JUMPDEST PUSH2 0x71 PUSH1 0x4 DUP1 CALLDATASIZE SUB PUSH1 0x40 DUP2 LT ISZERO PUSH2 0x51 JUMPI PUSH1 0x0 DUP1 REVERT JUMPDEST DUP2 ADD SWAP1 DUP1 DUP1 CALLDATALOAD SWAP1 PUSH1 0x20 ADD SWAP1 SWAP3 SWAP2 SWAP1 DUP1 CALLDATALOAD SWAP1 PUSH1 0x20 ADD SWAP1 SWAP3 SWAP2 SWAP1 POP POP POP PUSH2 0xE1 JUMP JUMPDEST PUSH1 0x40 MLOAD DUP1 DUP4 DUP2 MSTORE PUSH1 0x20 ADD DUP3 DUP2 MSTORE PUSH1 0x20 ADD SWAP3 POP POP POP PUSH1 0x40 MLOAD DUP1 SWAP2 SUB SWAP1 RETURN JUMPDEST PUSH2 0xC4 PUSH1 0x4 DUP1 CALLDATASIZE SUB PUSH1 0x40 DUP2 LT ISZERO PUSH2 0xA4 JUMPI PUSH1 0x0 DUP1 REVERT JUMPDEST DUP2 ADD SWAP1 DUP1 DUP1 CALLDATALOAD SWAP1 PUSH1 0x20 ADD SWAP1 SWAP3 SWAP2 SWAP1 DUP1 CALLDATALOAD SWAP1 PUSH1 0x20 ADD SWAP1 SWAP3 SWAP2 SWAP1 POP POP POP PUSH2 0x130 JUMP JUMPDEST PUSH1 0x40 MLOAD DUP1 DUP4 DUP2 MSTORE PUSH1 0x20 ADD DUP3 DUP2 MSTORE PUSH1 0x20 ADD SWAP3 POP POP POP PUSH1 0x40 MLOAD DUP1 SWAP2 SUB SWAP1 RETURN JUMPDEST PUSH1 0x0 DUP1 PUSH2 0x109 JUMP JUMPDEST PUSH1 0x0 DUP1 DUP3 SWAP2 POP DUP4 SWAP1 POP DUP5 ISZERO PUSH2 0x101 JUMPI DUP1 DUP3 SWAP2 POP DUP1 SWAP3 POP POP JUMPDEST SWAP4 POP SWAP4 SWAP2 POP POP JUMP JUMPDEST PUSH2 0x115 PUSH1 0x0 DUP5 DUP7 PUSH2 0xE9 JUMP JUMPDEST SWAP4 POP SWAP4 POP PUSH2 0x125 PUSH1 0x1 DUP5 DUP7 PUSH2 0xE9 JUMP JUMPDEST SWAP2 POP SWAP2 POP SWAP3 POP SWAP3 SWAP1 POP JUMP JUMPDEST PUSH1 0x0 DUP1 PUSH2 0x15F JUMP JUMPDEST PUSH1 0x0 DUP1 DUP5 PUSH1 0x0 DUP2 EQ PUSH2 0x14F JUMPI DUP5 SWAP3 POP DUP4 SWAP2 POP PUSH2 0x156 JUMP JUMPDEST DUP4 SWAP3 POP DUP5 SWAP2 POP JUMPDEST POP SWAP4 POP SWAP4 SWAP2 POP POP JUMP JUMPDEST PUSH2 0x16B PUSH1 0x0 DUP5 DUP7 PUSH2 0x138 JUMP JUMPDEST SWAP4 POP SWAP4 POP PUSH2 0x17B PUSH1 0x1 DUP5 DUP7 PUSH2 0x138 JUMP JUMPDEST SWAP2 POP SWAP2 POP SWAP3 POP SWAP3 SWAP1 POP JUMP INVALID LOG2 PUSH5 0x6970667358 0x22 SLT KECCAK256 0xE5 PUSH30 0x25F803F589C572F51BA23D3CFFC038C15592209BE6B50509F9E1BC54C38B PUSH5 0x736F6C6343 STOP MOD 0xC STOP CALLER "
        },
        "methodIdentifiers": {
          "case_switch(uint256,uint256)": "dcd81294",
          "if_else(uint256,uint256)": "0f71a1fa"
        }
      }
    }
  }
}