{
  "_format": "hh-sol-artifact-1",
  "contractName": "SwapMeHarder",
  "sourceName": "contracts/SwapMeHarder.sol",
  "abi": [
    {
      "inputs": [
        {
          "internalType": "uint256",
          "name": "x",
          "type": "uint256"
        },
        {
          "internalType": "uint256",
          "name": "y",
          "type": "uint256"
        }
      ],
      "name": "case_switch",
      "outputs": [
        {
          "internalType": "uint256",
          "name": "xx",
          "type": "uint256"
        },
        {
          "internalType": "uint256",
          "name": "yy",
          "type": "uint256"
        }
      ],
      "stateMutability": "nonpayable",
      "type": "function"
    },
    {
      "inputs": [
        {
          "internalType": "uint256",
          "name": "x",
          "type": "uint256"
        },
        {
          "internalType": "uint256",
          "name": "y",
          "type": "uint256"
        }
      ],
      "name": "if_else",
      "outputs": [
        {
          "internalType": "uint256",
          "name": "xx",
          "type": "uint256"
        },
        {
          "internalType": "uint256",
          "name": "yy",
          "type": "uint256"
        }
      ],
      "stateMutability": "nonpayable",
      "type": "function"
    }
  ],
  "bytecode": "0x608060405234801561001057600080fd5b506101bc806100206000396000f3fe608060405234801561001057600080fd5b50600436106100365760003560e01c80630f71a1fa1461003b578063dcd812941461008e575b600080fd5b6100716004803603604081101561005157600080fd5b8101908080359060200190929190803590602001909291905050506100e1565b604051808381526020018281526020019250505060405180910390f35b6100c4600480360360408110156100a457600080fd5b810190808035906020019092919080359060200190929190505050610130565b604051808381526020018281526020019250505060405180910390f35b600080610109565b60008082915083905084156101015780829150809250505b935093915050565b610115600084866100e9565b93509350610125600184866100e9565b915091509250929050565b60008061015f565b600080846000811461014f57849250839150610156565b8392508491505b50935093915050565b61016b60008486610138565b9350935061017b60018486610138565b91509150925092905056fea2646970667358221220e57d25f803f589c572f51ba23d3cffc038c15592209be6b50509f9e1bc54c38b64736f6c634300060c0033",
  "linkReferences": {},
  "deployedLinkReferences": {}
}